{
  "contractName": "Assignment3c",
  "abi": [
    {
      "inputs": [],
      "stateMutability": "nonpayable",
      "type": "constructor"
    },
    {
      "anonymous": false,
      "inputs": [
        {
          "indexed": true,
          "internalType": "address",
          "name": "owner",
          "type": "address"
        },
        {
          "indexed": true,
          "internalType": "address",
          "name": "spender",
          "type": "address"
        },
        {
          "indexed": false,
          "internalType": "uint256",
          "name": "value",
          "type": "uint256"
        }
      ],
      "name": "Approval",
      "type": "event"
    },
    {
      "anonymous": false,
      "inputs": [
        {
          "indexed": true,
          "internalType": "address",
          "name": "from",
          "type": "address"
        },
        {
          "indexed": true,
          "internalType": "address",
          "name": "to",
          "type": "address"
        },
        {
          "indexed": false,
          "internalType": "uint256",
          "name": "value",
          "type": "uint256"
        }
      ],
      "name": "Transfer",
      "type": "event"
    },
    {
      "inputs": [],
      "name": "Owner",
      "outputs": [
        {
          "internalType": "address",
          "name": "",
          "type": "address"
        }
      ],
      "stateMutability": "view",
      "type": "function"
    },
    {
      "inputs": [
        {
          "internalType": "address",
          "name": "owner",
          "type": "address"
        },
        {
          "internalType": "address",
          "name": "spender",
          "type": "address"
        }
      ],
      "name": "allowance",
      "outputs": [
        {
          "internalType": "uint256",
          "name": "",
          "type": "uint256"
        }
      ],
      "stateMutability": "view",
      "type": "function"
    },
    {
      "inputs": [
        {
          "internalType": "address",
          "name": "spender",
          "type": "address"
        },
        {
          "internalType": "uint256",
          "name": "amount",
          "type": "uint256"
        }
      ],
      "name": "approve",
      "outputs": [
        {
          "internalType": "bool",
          "name": "",
          "type": "bool"
        }
      ],
      "stateMutability": "nonpayable",
      "type": "function"
    },
    {
      "inputs": [
        {
          "internalType": "address",
          "name": "account",
          "type": "address"
        }
      ],
      "name": "balanceOf",
      "outputs": [
        {
          "internalType": "uint256",
          "name": "",
          "type": "uint256"
        }
      ],
      "stateMutability": "view",
      "type": "function"
    },
    {
      "inputs": [],
      "name": "cap",
      "outputs": [
        {
          "internalType": "uint256",
          "name": "",
          "type": "uint256"
        }
      ],
      "stateMutability": "view",
      "type": "function"
    },
    {
      "inputs": [],
      "name": "decimals",
      "outputs": [
        {
          "internalType": "uint8",
          "name": "",
          "type": "uint8"
        }
      ],
      "stateMutability": "view",
      "type": "function"
    },
    {
      "inputs": [
        {
          "internalType": "address",
          "name": "spender",
          "type": "address"
        },
        {
          "internalType": "uint256",
          "name": "subtractedValue",
          "type": "uint256"
        }
      ],
      "name": "decreaseAllowance",
      "outputs": [
        {
          "internalType": "bool",
          "name": "",
          "type": "bool"
        }
      ],
      "stateMutability": "nonpayable",
      "type": "function"
    },
    {
      "inputs": [
        {
          "internalType": "address",
          "name": "spender",
          "type": "address"
        },
        {
          "internalType": "uint256",
          "name": "addedValue",
          "type": "uint256"
        }
      ],
      "name": "increaseAllowance",
      "outputs": [
        {
          "internalType": "bool",
          "name": "",
          "type": "bool"
        }
      ],
      "stateMutability": "nonpayable",
      "type": "function"
    },
    {
      "inputs": [],
      "name": "name",
      "outputs": [
        {
          "internalType": "string",
          "name": "",
          "type": "string"
        }
      ],
      "stateMutability": "view",
      "type": "function"
    },
    {
      "inputs": [],
      "name": "symbol",
      "outputs": [
        {
          "internalType": "string",
          "name": "",
          "type": "string"
        }
      ],
      "stateMutability": "view",
      "type": "function"
    },
    {
      "inputs": [],
      "name": "totalSupply",
      "outputs": [
        {
          "internalType": "uint256",
          "name": "",
          "type": "uint256"
        }
      ],
      "stateMutability": "view",
      "type": "function"
    },
    {
      "inputs": [
        {
          "internalType": "address",
          "name": "sender",
          "type": "address"
        },
        {
          "internalType": "address",
          "name": "recipient",
          "type": "address"
        },
        {
          "internalType": "uint256",
          "name": "amount",
          "type": "uint256"
        }
      ],
      "name": "transferFrom",
      "outputs": [
        {
          "internalType": "bool",
          "name": "",
          "type": "bool"
        }
      ],
      "stateMutability": "nonpayable",
      "type": "function"
    },
    {
      "inputs": [
        {
          "internalType": "address",
          "name": "account",
          "type": "address"
        },
        {
          "internalType": "uint256",
          "name": "amount",
          "type": "uint256"
        }
      ],
      "name": "generateToken",
      "outputs": [],
      "stateMutability": "nonpayable",
      "type": "function"
    },
    {
      "inputs": [
        {
          "internalType": "address",
          "name": "recipient",
          "type": "address"
        },
        {
          "internalType": "uint256",
          "name": "amount",
          "type": "uint256"
        }
      ],
      "name": "transfer",
      "outputs": [
        {
          "internalType": "bool",
          "name": "",
          "type": "bool"
        }
      ],
      "stateMutability": "nonpayable",
      "type": "function"
    },
    {
      "inputs": [
        {
          "internalType": "uint256",
          "name": "amount",
          "type": "uint256"
        }
      ],
      "name": "adjustPrice",
      "outputs": [],
      "stateMutability": "view",
      "type": "function"
    },
    {
      "inputs": [
        {
          "internalType": "address",
          "name": "_addr",
          "type": "address"
        },
        {
          "internalType": "uint256",
          "name": "_amount",
          "type": "uint256"
        }
      ],
      "name": "buyToken",
      "outputs": [],
      "stateMutability": "payable",
      "type": "function"
    },
    {
      "inputs": [
        {
          "internalType": "uint256",
          "name": "amount",
          "type": "uint256"
        }
      ],
      "name": "withDraw",
      "outputs": [],
      "stateMutability": "payable",
      "type": "function"
    },
    {
      "inputs": [],
      "name": "InquireBalance",
      "outputs": [
        {
          "internalType": "uint256",
          "name": "",
          "type": "uint256"
        }
      ],
      "stateMutability": "view",
      "type": "function"
    }
  ],
  "bytecode": "0x60806040523480156200001157600080fd5b506040518060400160405280600a81526020017f5468697264546f6b656e000000000000000000000000000000000000000000008152506040518060400160405280600381526020017f4d4b4e00000000000000000000000000000000000000000000000000000000008152508160039080519060200190620000969291906200033c565b508060049080519060200190620000af9291906200033c565b50620000c06200019860201b60201c565b600a620000ce91906200057d565b612710620000dd9190620006ba565b6002819055506002546000803373ffffffffffffffffffffffffffffffffffffffff1673ffffffffffffffffffffffffffffffffffffffff16815260200190815260200160002081905550505060006200013c6200019860201b60201c565b60ff16600a6200014d91906200052c565b6127106200015c9190620006ba565b905062000179600482620001a160201b62000e1f1790919060201c565b600581905550620001913382620001b960201b60201c565b50620007fc565b60006012905090565b60008183620001b19190620006ba565b905092915050565b600073ffffffffffffffffffffffffffffffffffffffff168273ffffffffffffffffffffffffffffffffffffffff1614156200022c576040517f08c379a0000000000000000000000000000000000000000000000000000000008152600401620002239062000424565b60405180910390fd5b62000240600083836200033260201b60201c565b806002600082825462000254919062000474565b92505081905550806000808473ffffffffffffffffffffffffffffffffffffffff1673ffffffffffffffffffffffffffffffffffffffff1681526020019081526020016000206000828254620002ab919062000474565b925050819055508173ffffffffffffffffffffffffffffffffffffffff16600073ffffffffffffffffffffffffffffffffffffffff167fddf252ad1be2c89b69c2b068fc378daa952ba7f163c4a11628f55a4df523b3ef8360405162000312919062000446565b60405180910390a36200032e600083836200033760201b60201c565b5050565b505050565b505050565b8280546200034a9062000732565b90600052602060002090601f0160209004810192826200036e5760008555620003ba565b82601f106200038957805160ff1916838001178555620003ba565b82800160010185558215620003ba579182015b82811115620003b95782518255916020019190600101906200039c565b5b509050620003c99190620003cd565b5090565b5b80821115620003e8576000816000905550600101620003ce565b5090565b6000620003fb601f8362000463565b91506200040882620007d3565b602082019050919050565b6200041e816200071b565b82525050565b600060208201905081810360008301526200043f81620003ec565b9050919050565b60006020820190506200045d600083018462000413565b92915050565b600082825260208201905092915050565b600062000481826200071b565b91506200048e836200071b565b9250827fffffffffffffffffffffffffffffffffffffffffffffffffffffffffffffffff03821115620004c657620004c562000768565b5b828201905092915050565b6000808291508390505b60018511156200052357808604811115620004fb57620004fa62000768565b5b60018516156200050b5780820291505b80810290506200051b85620007c6565b9450620004db565b94509492505050565b600062000539826200071b565b915062000546836200071b565b9250620005757fffffffffffffffffffffffffffffffffffffffffffffffffffffffffffffffff8484620005ce565b905092915050565b60006200058a826200071b565b9150620005978362000725565b9250620005c67fffffffffffffffffffffffffffffffffffffffffffffffffffffffffffffffff8484620005ce565b905092915050565b600082620005e05760019050620006b3565b81620005f05760009050620006b3565b816001811462000609576002811462000614576200064a565b6001915050620006b3565b60ff84111562000629576200062862000768565b5b8360020a91508482111562000643576200064262000768565b5b50620006b3565b5060208310610133831016604e8410600b8410161715620006845782820a9050838111156200067e576200067d62000768565b5b620006b3565b620006938484846001620004d1565b92509050818404811115620006ad57620006ac62000768565b5b81810290505b9392505050565b6000620006c7826200071b565b9150620006d4836200071b565b9250817fffffffffffffffffffffffffffffffffffffffffffffffffffffffffffffffff048311821515161562000710576200070f62000768565b5b828202905092915050565b6000819050919050565b600060ff82169050919050565b600060028204905060018216806200074b57607f821691505b6020821081141562000762576200076162000797565b5b50919050565b7f4e487b7100000000000000000000000000000000000000000000000000000000600052601160045260246000fd5b7f4e487b7100000000000000000000000000000000000000000000000000000000600052602260045260246000fd5b60008160011c9050919050565b7f45524332303a206d696e7420746f20746865207a65726f206164647265737300600082015250565b612079806200080c6000396000f3fe6080604052600436106101095760003560e01c806368f8fc101161009557806395d89b411161006457806395d89b4114610363578063a457c2d71461038e578063a9059cbb146103cb578063b4a99a4e14610408578063dd62ed3e1461043357610109565b806368f8fc10146102b657806370a08231146102d257806372bf079e1461030f5780638ed3f1c91461033857610109565b8063188b5372116100dc578063188b5372146101bd57806323b872dd146101e6578063313ce56714610223578063355274ea1461024e578063395093511461027957610109565b806306fdde031461010e578063095ea7b31461013957806314174f331461017657806318160ddd14610192575b600080fd5b34801561011a57600080fd5b50610123610470565b6040516101309190611818565b60405180910390f35b34801561014557600080fd5b50610160600480360381019061015b91906114f3565b610502565b60405161016d91906117fd565b60405180910390f35b610190600480360381019061018b9190611533565b610520565b005b34801561019e57600080fd5b506101a76106be565b6040516101b49190611a1a565b60405180910390f35b3480156101c957600080fd5b506101e460048036038101906101df91906114f3565b6106c8565b005b3480156101f257600080fd5b5061020d600480360381019061020891906114a0565b6107e6565b60405161021a91906117fd565b60405180910390f35b34801561022f57600080fd5b506102386108de565b6040516102459190611a35565b60405180910390f35b34801561025a57600080fd5b506102636108e7565b6040516102709190611a1a565b60405180910390f35b34801561028557600080fd5b506102a0600480360381019061029b91906114f3565b6108ed565b6040516102ad91906117fd565b60405180910390f35b6102d060048036038101906102cb91906114f3565b610999565b005b3480156102de57600080fd5b506102f960048036038101906102f49190611433565b610a6f565b6040516103069190611a1a565b60405180910390f35b34801561031b57600080fd5b5061033660048036038101906103319190611533565b610ab7565b005b34801561034457600080fd5b5061034d610b4a565b60405161035a9190611a1a565b60405180910390f35b34801561036f57600080fd5b50610378610b91565b6040516103859190611818565b60405180910390f35b34801561039a57600080fd5b506103b560048036038101906103b091906114f3565b610c23565b6040516103c291906117fd565b60405180910390f35b3480156103d757600080fd5b506103f260048036038101906103ed91906114f3565b610d0e565b6040516103ff91906117fd565b60405180910390f35b34801561041457600080fd5b5061041d610d72565b60405161042a91906117e2565b60405180910390f35b34801561043f57600080fd5b5061045a60048036038101906104559190611460565b610d98565b6040516104679190611a1a565b60405180910390f35b60606003805461047f90611bd8565b80601f01602080910402602001604051908101604052809291908181526020018280546104ab90611bd8565b80156104f85780601f106104cd576101008083540402835291602001916104f8565b820191906000526020600020905b8154815290600101906020018083116104db57829003601f168201915b5050505050905090565b600061051661050f610e35565b8484610e3d565b6001905092915050565b60008111801561055d5750600073ffffffffffffffffffffffffffffffffffffffff163373ffffffffffffffffffffffffffffffffffffffff1614155b61059c576040517f08c379a00000000000000000000000000000000000000000000000000000000081526004016105939061185a565b60405180910390fd5b600760003373ffffffffffffffffffffffffffffffffffffffff1673ffffffffffffffffffffffffffffffffffffffff1681526020019081526020016000205481111561061e576040517f08c379a00000000000000000000000000000000000000000000000000000000081526004016106159061195a565b60405180910390fd5b3373ffffffffffffffffffffffffffffffffffffffff166108fc829081150290604051600060405180830381858888f19350505050158015610664573d6000803e3d6000fd5b5080600760003373ffffffffffffffffffffffffffffffffffffffff1673ffffffffffffffffffffffffffffffffffffffff16815260200190815260200160002060008282546106b49190611b1c565b9250508190555050565b6000600254905090565b600073ffffffffffffffffffffffffffffffffffffffff168273ffffffffffffffffffffffffffffffffffffffff161415610738576040517f08c379a000000000000000000000000000000000000000000000000000000000815260040161072f9061199a565b60405180910390fd5b6000811161077b576040517f08c379a0000000000000000000000000000000000000000000000000000000008152600401610772906118ba565b60405180910390fd5b6005546107988261078a6106be565b61100890919063ffffffff16565b106107d8576040517f08c379a00000000000000000000000000000000000000000000000000000000081526004016107cf9061187a565b60405180910390fd5b6107e2828261101e565b5050565b60006107f384848461117e565b6000600160008673ffffffffffffffffffffffffffffffffffffffff1673ffffffffffffffffffffffffffffffffffffffff168152602001908152602001600020600061083e610e35565b73ffffffffffffffffffffffffffffffffffffffff1673ffffffffffffffffffffffffffffffffffffffff168152602001908152602001600020549050828110156108be576040517f08c379a00000000000000000000000000000000000000000000000000000000081526004016108b59061193a565b60405180910390fd5b6108d2856108ca610e35565b858403610e3d565b60019150509392505050565b60006012905090565b60055481565b600061098f6108fa610e35565b848460016000610908610e35565b73ffffffffffffffffffffffffffffffffffffffff1673ffffffffffffffffffffffffffffffffffffffff16815260200190815260200160002060008873ffffffffffffffffffffffffffffffffffffffff1673ffffffffffffffffffffffffffffffffffffffff1681526020019081526020016000205461098a9190611a6c565b610e3d565b6001905092915050565b6000811180156109d65750600073ffffffffffffffffffffffffffffffffffffffff168273ffffffffffffffffffffffffffffffffffffffff1614155b610a15576040517f08c379a0000000000000000000000000000000000000000000000000000000008152600401610a0c9061185a565b60405180910390fd5b80600760008473ffffffffffffffffffffffffffffffffffffffff1673ffffffffffffffffffffffffffffffffffffffff1681526020019081526020016000206000828254610a649190611a6c565b925050819055505050565b60008060008373ffffffffffffffffffffffffffffffffffffffff1673ffffffffffffffffffffffffffffffffffffffff168152602001908152602001600020549050919050565b600660009054906101000a900473ffffffffffffffffffffffffffffffffffffffff1673ffffffffffffffffffffffffffffffffffffffff163373ffffffffffffffffffffffffffffffffffffffff1614610b47576040517f08c379a0000000000000000000000000000000000000000000000000000000008152600401610b3e9061191a565b60405180910390fd5b50565b6000600760003373ffffffffffffffffffffffffffffffffffffffff1673ffffffffffffffffffffffffffffffffffffffff16815260200190815260200160002054905090565b606060048054610ba090611bd8565b80601f0160208091040260200160405190810160405280929190818152602001828054610bcc90611bd8565b8015610c195780601f10610bee57610100808354040283529160200191610c19565b820191906000526020600020905b815481529060010190602001808311610bfc57829003601f168201915b5050505050905090565b60008060016000610c32610e35565b73ffffffffffffffffffffffffffffffffffffffff1673ffffffffffffffffffffffffffffffffffffffff16815260200190815260200160002060008573ffffffffffffffffffffffffffffffffffffffff1673ffffffffffffffffffffffffffffffffffffffff16815260200190815260200160002054905082811015610cef576040517f08c379a0000000000000000000000000000000000000000000000000000000008152600401610ce6906119da565b60405180910390fd5b610d03610cfa610e35565b85858403610e3d565b600191505092915050565b600062278d00421115610d56576040517f08c379a0000000000000000000000000000000000000000000000000000000008152600401610d4d906118da565b60405180910390fd5b610d68610d61610e35565b848461117e565b6001905092915050565b600660009054906101000a900473ffffffffffffffffffffffffffffffffffffffff1681565b6000600160008473ffffffffffffffffffffffffffffffffffffffff1673ffffffffffffffffffffffffffffffffffffffff16815260200190815260200160002060008373ffffffffffffffffffffffffffffffffffffffff1673ffffffffffffffffffffffffffffffffffffffff16815260200190815260200160002054905092915050565b60008183610e2d9190611ac2565b905092915050565b600033905090565b600073ffffffffffffffffffffffffffffffffffffffff168373ffffffffffffffffffffffffffffffffffffffff161415610ead576040517f08c379a0000000000000000000000000000000000000000000000000000000008152600401610ea4906119ba565b60405180910390fd5b600073ffffffffffffffffffffffffffffffffffffffff168273ffffffffffffffffffffffffffffffffffffffff161415610f1d576040517f08c379a0000000000000000000000000000000000000000000000000000000008152600401610f149061189a565b60405180910390fd5b80600160008573ffffffffffffffffffffffffffffffffffffffff1673ffffffffffffffffffffffffffffffffffffffff16815260200190815260200160002060008473ffffffffffffffffffffffffffffffffffffffff1673ffffffffffffffffffffffffffffffffffffffff168152602001908152602001600020819055508173ffffffffffffffffffffffffffffffffffffffff168373ffffffffffffffffffffffffffffffffffffffff167f8c5be1e5ebec7d5bd14f71427d1e84f3dd0314c0f7b2291e5b200ac8c7c3b92583604051610ffb9190611a1a565b60405180910390a3505050565b600081836110169190611a6c565b905092915050565b600073ffffffffffffffffffffffffffffffffffffffff168273ffffffffffffffffffffffffffffffffffffffff16141561108e576040517f08c379a0000000000000000000000000000000000000000000000000000000008152600401611085906119fa565b60405180910390fd5b61109a600083836113ff565b80600260008282546110ac9190611a6c565b92505081905550806000808473ffffffffffffffffffffffffffffffffffffffff1673ffffffffffffffffffffffffffffffffffffffff16815260200190815260200160002060008282546111019190611a6c565b925050819055508173ffffffffffffffffffffffffffffffffffffffff16600073ffffffffffffffffffffffffffffffffffffffff167fddf252ad1be2c89b69c2b068fc378daa952ba7f163c4a11628f55a4df523b3ef836040516111669190611a1a565b60405180910390a361117a60008383611404565b5050565b600073ffffffffffffffffffffffffffffffffffffffff168373ffffffffffffffffffffffffffffffffffffffff1614156111ee576040517f08c379a00000000000000000000000000000000000000000000000000000000081526004016111e59061197a565b60405180910390fd5b600073ffffffffffffffffffffffffffffffffffffffff168273ffffffffffffffffffffffffffffffffffffffff16141561125e576040517f08c379a00000000000000000000000000000000000000000000000000000000081526004016112559061183a565b60405180910390fd5b6112698383836113ff565b60008060008573ffffffffffffffffffffffffffffffffffffffff1673ffffffffffffffffffffffffffffffffffffffff168152602001908152602001600020549050818110156112ef576040517f08c379a00000000000000000000000000000000000000000000000000000000081526004016112e6906118fa565b60405180910390fd5b8181036000808673ffffffffffffffffffffffffffffffffffffffff1673ffffffffffffffffffffffffffffffffffffffff16815260200190815260200160002081905550816000808573ffffffffffffffffffffffffffffffffffffffff1673ffffffffffffffffffffffffffffffffffffffff16815260200190815260200160002060008282546113829190611a6c565b925050819055508273ffffffffffffffffffffffffffffffffffffffff168473ffffffffffffffffffffffffffffffffffffffff167fddf252ad1be2c89b69c2b068fc378daa952ba7f163c4a11628f55a4df523b3ef846040516113e69190611a1a565b60405180910390a36113f9848484611404565b50505050565b505050565b505050565b60008135905061141881612015565b92915050565b60008135905061142d8161202c565b92915050565b60006020828403121561144957611448611c68565b5b600061145784828501611409565b91505092915050565b6000806040838503121561147757611476611c68565b5b600061148585828601611409565b925050602061149685828601611409565b9150509250929050565b6000806000606084860312156114b9576114b8611c68565b5b60006114c786828701611409565b93505060206114d886828701611409565b92505060406114e98682870161141e565b9150509250925092565b6000806040838503121561150a57611509611c68565b5b600061151885828601611409565b92505060206115298582860161141e565b9150509250929050565b60006020828403121561154957611548611c68565b5b60006115578482850161141e565b91505092915050565b61156981611b50565b82525050565b61157881611b62565b82525050565b600061158982611a50565b6115938185611a5b565b93506115a3818560208601611ba5565b6115ac81611c6d565b840191505092915050565b60006115c4602383611a5b565b91506115cf82611c7e565b604082019050919050565b60006115e7602883611a5b565b91506115f282611ccd565b604082019050919050565b600061160a600f83611a5b565b915061161582611d1c565b602082019050919050565b600061162d602283611a5b565b915061163882611d45565b604082019050919050565b6000611650600e83611a5b565b915061165b82611d94565b602082019050919050565b6000611673601083611a5b565b915061167e82611dbd565b602082019050919050565b6000611696602683611a5b565b91506116a182611de6565b604082019050919050565b60006116b9601f83611a5b565b91506116c482611e35565b602082019050919050565b60006116dc602883611a5b565b91506116e782611e5e565b604082019050919050565b60006116ff601483611a5b565b915061170a82611ead565b602082019050919050565b6000611722602583611a5b565b915061172d82611ed6565b604082019050919050565b6000611745600f83611a5b565b915061175082611f25565b602082019050919050565b6000611768602483611a5b565b915061177382611f4e565b604082019050919050565b600061178b602583611a5b565b915061179682611f9d565b604082019050919050565b60006117ae601f83611a5b565b91506117b982611fec565b602082019050919050565b6117cd81611b8e565b82525050565b6117dc81611b98565b82525050565b60006020820190506117f76000830184611560565b92915050565b6000602082019050611812600083018461156f565b92915050565b60006020820190508181036000830152611832818461157e565b905092915050565b60006020820190508181036000830152611853816115b7565b9050919050565b60006020820190508181036000830152611873816115da565b9050919050565b60006020820190508181036000830152611893816115fd565b9050919050565b600060208201905081810360008301526118b381611620565b9050919050565b600060208201905081810360008301526118d381611643565b9050919050565b600060208201905081810360008301526118f381611666565b9050919050565b6000602082019050818103600083015261191381611689565b9050919050565b60006020820190508181036000830152611933816116ac565b9050919050565b60006020820190508181036000830152611953816116cf565b9050919050565b60006020820190508181036000830152611973816116f2565b9050919050565b6000602082019050818103600083015261199381611715565b9050919050565b600060208201905081810360008301526119b381611738565b9050919050565b600060208201905081810360008301526119d38161175b565b9050919050565b600060208201905081810360008301526119f38161177e565b9050919050565b60006020820190508181036000830152611a13816117a1565b9050919050565b6000602082019050611a2f60008301846117c4565b92915050565b6000602082019050611a4a60008301846117d3565b92915050565b600081519050919050565b600082825260208201905092915050565b6000611a7782611b8e565b9150611a8283611b8e565b9250827fffffffffffffffffffffffffffffffffffffffffffffffffffffffffffffffff03821115611ab757611ab6611c0a565b5b828201905092915050565b6000611acd82611b8e565b9150611ad883611b8e565b9250817fffffffffffffffffffffffffffffffffffffffffffffffffffffffffffffffff0483118215151615611b1157611b10611c0a565b5b828202905092915050565b6000611b2782611b8e565b9150611b3283611b8e565b925082821015611b4557611b44611c0a565b5b828203905092915050565b6000611b5b82611b6e565b9050919050565b60008115159050919050565b600073ffffffffffffffffffffffffffffffffffffffff82169050919050565b6000819050919050565b600060ff82169050919050565b60005b83811015611bc3578082015181840152602081019050611ba8565b83811115611bd2576000848401525b50505050565b60006002820490506001821680611bf057607f821691505b60208210811415611c0457611c03611c39565b5b50919050565b7f4e487b7100000000000000000000000000000000000000000000000000000000600052601160045260246000fd5b7f4e487b7100000000000000000000000000000000000000000000000000000000600052602260045260246000fd5b600080fd5b6000601f19601f8301169050919050565b7f45524332303a207472616e7366657220746f20746865207a65726f206164647260008201527f6573730000000000000000000000000000000000000000000000000000000000602082015250565b7f56616c75652073686f756c64206e6f742062652030206f7220496e76616c696460008201527f2061646472657373000000000000000000000000000000000000000000000000602082015250565b7f4f7665724c696d697420546f6b656e0000000000000000000000000000000000600082015250565b7f45524332303a20617070726f766520746f20746865207a65726f20616464726560008201527f7373000000000000000000000000000000000000000000000000000000000000602082015250565b7f496e76616c696420616d6f756e74000000000000000000000000000000000000600082015250565b7f596f75206861766520746f207761697400000000000000000000000000000000600082015250565b7f45524332303a207472616e7366657220616d6f756e742065786365656473206260008201527f616c616e63650000000000000000000000000000000000000000000000000000602082015250565b7f4f6e6c79206f776e65722063616e2061646a7573742074686520707269636500600082015250565b7f45524332303a207472616e7366657220616d6f756e742065786365656473206160008201527f6c6c6f77616e6365000000000000000000000000000000000000000000000000602082015250565b7f496e76616c69642042616e6b206163636f756e74000000000000000000000000600082015250565b7f45524332303a207472616e736665722066726f6d20746865207a65726f20616460008201527f6472657373000000000000000000000000000000000000000000000000000000602082015250565b7f496e76616c696420416464726573730000000000000000000000000000000000600082015250565b7f45524332303a20617070726f76652066726f6d20746865207a65726f2061646460008201527f7265737300000000000000000000000000000000000000000000000000000000602082015250565b7f45524332303a2064656372656173656420616c6c6f77616e63652062656c6f7760008201527f207a65726f000000000000000000000000000000000000000000000000000000602082015250565b7f45524332303a206d696e7420746f20746865207a65726f206164647265737300600082015250565b61201e81611b50565b811461202957600080fd5b50565b61203581611b8e565b811461204057600080fd5b5056fea2646970667358221220df40519a2e6560ed786fcc46af1bba5fbd56bf3c421986ace373023e539d15d264736f6c63430008070033",
  "immutableReferences": {},
  "source": "// SPDX-License-Identifier: MIT\r\n\r\npragma solidity 0.8.7;\r\n\r\n\r\ninterface IERC20 {\r\n     \r\n    \r\n    function totalSupply() external view returns (uint256);\r\n\r\n   \r\n    function balanceOf(address account) external view returns (uint256);\r\n\r\n   \r\n    function transfer(address recipient, uint256 amount) external returns (bool);\r\n\r\n    \r\n    function allowance(address owner, address spender) external view returns (uint256);\r\n\r\n   \r\n    function approve(address spender, uint256 amount) external returns (bool);\r\n    \r\n    \r\n    function transferFrom(\r\n        address sender,\r\n        address recipient,\r\n        uint256 amount\r\n        //using SafeMath for uint;\r\n    ) external returns (bool);\r\n\r\n   \r\n    event Transfer(address indexed from, address indexed to, uint256 value);\r\n\r\n   \r\n    event Approval(address indexed owner, address indexed spender, uint256 value);\r\n}\r\ninterface IERC20Metadata is IERC20 {\r\n   \r\n    function name() external view returns (string memory);\r\n\r\n    \r\n    function symbol() external view returns (string memory);\r\n\r\n    function decimals() external view returns (uint8);\r\n}\r\nabstract contract Context {\r\n    function _msgSender() internal view virtual returns (address) {\r\n        return msg.sender;\r\n    }\r\n\r\n    function _msgData() internal view virtual returns (bytes calldata) {\r\n        return msg.data;\r\n    }\r\n}\r\n\r\n\r\ncontract ERC20 is Context, IERC20, IERC20Metadata {\r\n    mapping(address => uint256) private _balances;\r\n\r\n    mapping(address => mapping(address => uint256)) private _allowances;\r\n    \r\n    //mapping(address => uint256) private _buyToken;\r\n\r\n    uint256 private _totalSupply;\r\n\r\n    string private _name;\r\n    string private _symbol;\r\n   \r\n    \r\n\r\n    constructor(string memory name_, string memory symbol_) {\r\n        _name = name_;\r\n        _symbol = symbol_;\r\n        _totalSupply = 10000*10**(decimals());\r\n        _balances[msg.sender] = _totalSupply;\r\n    }\r\n\r\n    \r\n    function name() public view virtual override returns (string memory) {\r\n        return _name;\r\n    }\r\n\r\n    \r\n    function symbol() public view virtual override returns (string memory) {\r\n        return _symbol;\r\n    }\r\n\r\n    \r\n    function decimals() public view virtual override returns (uint8) {\r\n        return 18;\r\n    }\r\n\r\n   \r\n    function totalSupply() public view virtual override returns (uint256) {\r\n        return _totalSupply;\r\n    }\r\n\r\n    \r\n    function balanceOf(address account) public view virtual override returns (uint256) {\r\n        return _balances[account];\r\n    }\r\n    \r\n\r\n    function transfer(address recipient, uint256 amount) public virtual override returns (bool) {\r\n        require(block.timestamp <= (30 days), \"You have to wait\");\r\n        _transfer(_msgSender(), recipient, amount);\r\n        return true;\r\n    }\r\n    \r\n    function allowance(address owner, address spender) public view virtual override returns (uint256) {\r\n        return _allowances[owner][spender];\r\n    }\r\n\r\n    \r\n    function approve(address spender, uint256 amount) public virtual override returns (bool) {\r\n        _approve(_msgSender(), spender, amount);\r\n        return true;\r\n    }\r\n\r\n    function transferFrom(\r\n        address sender,\r\n        address recipient,\r\n        uint256 amount\r\n    ) public virtual override returns (bool) {\r\n        _transfer(sender, recipient, amount);\r\n\r\n        uint256 currentAllowance = _allowances[sender][_msgSender()];\r\n        require(currentAllowance >= amount, \"ERC20: transfer amount exceeds allowance\");\r\n        unchecked {\r\n            _approve(sender, _msgSender(), currentAllowance - amount);\r\n        }\r\n\r\n        return true;\r\n    }\r\n\r\n   \r\n    function increaseAllowance(address spender, uint256 addedValue) public virtual returns (bool) {\r\n        _approve(_msgSender(), spender, _allowances[_msgSender()][spender] + addedValue);\r\n        return true;\r\n    }\r\n\r\n    \r\n    function decreaseAllowance(address spender, uint256 subtractedValue) public virtual returns (bool) {\r\n        uint256 currentAllowance = _allowances[_msgSender()][spender];\r\n        require(currentAllowance >= subtractedValue, \"ERC20: decreased allowance below zero\");\r\n        unchecked {\r\n            _approve(_msgSender(), spender, currentAllowance - subtractedValue);\r\n        }\r\n\r\n        return true;\r\n    }\r\n\r\n    \r\n    function _transfer(\r\n        address sender,\r\n        address recipient,\r\n        uint256 amount\r\n    ) internal virtual {\r\n        require(sender != address(0), \"ERC20: transfer from the zero address\");\r\n        require(recipient != address(0), \"ERC20: transfer to the zero address\");\r\n\r\n        _beforeTokenTransfer(sender, recipient, amount);\r\n\r\n        uint256 senderBalance = _balances[sender];\r\n        require(senderBalance >= amount, \"ERC20: transfer amount exceeds balance\");\r\n        unchecked {\r\n            _balances[sender] = senderBalance - amount;\r\n        }\r\n        _balances[recipient] += amount;\r\n\r\n        emit Transfer(sender, recipient, amount);\r\n\r\n        _afterTokenTransfer(sender, recipient, amount);\r\n    }\r\n\r\n    \r\n    function _mint(address account, uint256 amount) internal virtual {\r\n        require(account != address(0), \"ERC20: mint to the zero address\");\r\n\r\n        _beforeTokenTransfer(address(0), account, amount);\r\n\r\n        _totalSupply += amount;\r\n        _balances[account] += amount;\r\n        emit Transfer(address(0), account, amount);\r\n\r\n        _afterTokenTransfer(address(0), account, amount);\r\n    }\r\n\r\n   \r\n    function _burn(address account, uint256 amount) internal virtual {\r\n        require(account != address(0), \"ERC20: burn from the zero address\");\r\n\r\n        _beforeTokenTransfer(account, address(0), amount);\r\n\r\n        uint256 accountBalance = _balances[account];\r\n        require(accountBalance >= amount, \"ERC20: burn amount exceeds balance\");\r\n        unchecked {\r\n            _balances[account] = accountBalance - amount;\r\n        }\r\n        _totalSupply -= amount;\r\n\r\n        emit Transfer(account, address(0), amount);\r\n\r\n        _afterTokenTransfer(account, address(0), amount);\r\n    }\r\n\r\n    \r\n    function _approve(\r\n        address owner,\r\n        address spender,\r\n        uint256 amount\r\n    ) internal virtual {\r\n        require(owner != address(0), \"ERC20: approve from the zero address\");\r\n        require(spender != address(0), \"ERC20: approve to the zero address\");\r\n\r\n        _allowances[owner][spender] = amount;\r\n        emit Approval(owner, spender, amount);\r\n    }\r\n\r\n   \r\n    function _beforeTokenTransfer(\r\n        address from,\r\n        address to,\r\n        uint256 amount\r\n    ) internal virtual {}\r\n\r\n    \r\n    function _afterTokenTransfer(\r\n        address from,\r\n        address to,\r\n        uint256 amount\r\n    ) internal virtual {}\r\n}\r\n\r\nlibrary SafeMath {\r\n    \r\n    function tryAdd(uint256 a, uint256 b) internal pure returns (bool, uint256) {\r\n        unchecked {\r\n            uint256 c = a + b;\r\n            if (c < a) return (false, 0);\r\n            return (true, c);\r\n        }\r\n    }\r\n\r\n    \r\n    function trySub(uint256 a, uint256 b) internal pure returns (bool, uint256) {\r\n        unchecked {\r\n            if (b > a) return (false, 0);\r\n            return (true, a - b);\r\n        }\r\n    }\r\n\r\n   \r\n    function tryMul(uint256 a, uint256 b) internal pure returns (bool, uint256) {\r\n        unchecked {\r\n            \r\n            if (a == 0) return (true, 0);\r\n            uint256 c = a * b;\r\n            if (c / a != b) return (false, 0);\r\n            return (true, c);\r\n        }\r\n    }\r\n\r\n    \r\n    function tryDiv(uint256 a, uint256 b) internal pure returns (bool, uint256) {\r\n        unchecked {\r\n            if (b == 0) return (false, 0);\r\n            return (true, a / b);\r\n        }\r\n    }\r\n\r\n    function tryMod(uint256 a, uint256 b) internal pure returns (bool, uint256) {\r\n        unchecked {\r\n            if (b == 0) return (false, 0);\r\n            return (true, a % b);\r\n        }\r\n    }\r\n\r\n    function add(uint256 a, uint256 b) internal pure returns (uint256) {\r\n        return a + b;\r\n    }\r\n\r\n    function sub(uint256 a, uint256 b) internal pure returns (uint256) {\r\n        return a - b;\r\n    }\r\n\r\n    function mul(uint256 a, uint256 b) internal pure returns (uint256) {\r\n        return a * b;\r\n    }\r\n\r\n    function div(uint256 a, uint256 b) internal pure returns (uint256) {\r\n        return a / b;\r\n    }\r\n\r\n    function mod(uint256 a, uint256 b) internal pure returns (uint256) {\r\n        return a % b;\r\n    }\r\n\r\n    function sub(\r\n        uint256 a,\r\n        uint256 b,\r\n        string memory errorMessage\r\n    ) internal pure returns (uint256) {\r\n        unchecked {\r\n            require(b <= a, errorMessage);\r\n            return a - b;\r\n        }\r\n    }\r\n\r\n    function div(\r\n        uint256 a,\r\n        uint256 b,\r\n        string memory errorMessage\r\n    ) internal pure returns (uint256) {\r\n        unchecked {\r\n            require(b > 0, errorMessage);\r\n            return a / b;\r\n        }\r\n    }\r\n\r\n    function mod(\r\n        uint256 a,\r\n        uint256 b,\r\n        string memory errorMessage\r\n    ) internal pure returns (uint256) {\r\n        unchecked {\r\n            require(b > 0, errorMessage);\r\n            return a % b;\r\n        }\r\n    }\r\n    \r\n}\r\nabstract contract Ownable is Context {\r\n    address private _owner;\r\n\r\n    event OwnershipTransferred(address indexed previousOwner, address indexed newOwner);\r\n\r\n    constructor() {\r\n        _setOwner(_msgSender());\r\n    }\r\n\r\n    function owner() public view virtual returns (address) {\r\n        return _owner;\r\n    }\r\n\r\n    modifier onlyOwner() {\r\n        require(owner() == _msgSender(), \"Ownable: caller is not the owner\");\r\n        _;\r\n    }\r\n\r\n    function renounceOwnership() public virtual onlyOwner {\r\n        _setOwner(address(0));\r\n    }\r\n\r\n    function transferOwnership(address newOwner) public virtual onlyOwner {\r\n        require(newOwner != address(0), \"Ownable: new owner is the zero address\");\r\n        _setOwner(newOwner);\r\n    }\r\n\r\n    function _setOwner(address newOwner) private {\r\n        address oldOwner = _owner;\r\n        _owner = newOwner;\r\n        emit OwnershipTransferred(oldOwner, newOwner);\r\n    }\r\n}\r\n\r\ncontract Assignment3c is ERC20 {\r\n    using SafeMath for uint;\r\n    uint public cap;\r\n    address public Owner;\r\n    mapping(address => uint) private accounts;\r\n\r\n     \r\n    constructor() ERC20(\"ThirdToken\",\"MKN\")public{\r\n        //owner = msg.sender;\r\n        //releaseTime_ = (time.duration.months(1))\r\n        uint initialSupply  = 10000 * (10** uint(decimals()));\r\n        cap = initialSupply.mul(4);\r\n        _mint(msg.sender,initialSupply);\r\n    }\r\n    function generateToken(address account, uint amount) public {\r\n        require (account != address(0), \"Invalid Address\");\r\n        require (amount > 0, \"Invalid amount\");\r\n        require (totalSupply().add(amount)<cap, \"OverLimit Token\");\r\n        _mint(account,amount);\r\n    }\r\n    function transfer(address recipient, uint256 amount) public virtual override returns (bool) {\r\n        require(block.timestamp <= (30 days), \"You have to wait\");\r\n        _transfer(_msgSender(), recipient, amount);\r\n        return true;\r\n    }\r\n    \r\n    function adjustPrice(uint amount) public view {\r\n        require(msg.sender == Owner, \"Only owner can adjust the price\");\r\n    }\r\n    function buyToken(address _addr, uint _amount) public payable{\r\n        require(_amount > 0 && _addr != address(0), \"Value should not be 0 or Invalid address\");\r\n        accounts[_addr] += _amount;\r\n        \r\n    }\r\n    function withDraw(uint amount)public payable{\r\n        require(amount > 0 && msg.sender != address(0), \"Value should not be 0 or Invalid address\");\r\n        require(amount <= accounts[msg.sender],\"Invalid Bank account\");\r\n        payable(msg.sender).transfer(amount);\r\n        accounts[msg.sender] -=amount;\r\n    }\r\n    function InquireBalance()public view returns(uint){\r\n        return accounts[msg.sender];\r\n    }\r\n   \r\n}",
  "sourcePath": "C:\\Users\\nmt\\OneDrive\\Desktop\\Assignment3cagain\\contracts\\assignment3c.sol",
  "compiler": {
    "name": "solc",
    "version": "0.8.7+commit.e28d00a7.Emscripten.clang"
  },
  "schemaVersion": "3.4.3",
  "updatedAt": "2021-08-26T15:50:02.055Z",
  "devdoc": {
    "kind": "dev",
    "methods": {},
    "version": 1
  },
  "userdoc": {
    "kind": "user",
    "methods": {},
    "version": 1
  }
}